:100000000C947B000C94F4030C941B040C94420499
:100010000C94A3000C94A3000C94A3000C94A300D4
:100020000C94A3000C94A3000C94A3000C94A300C4
:100030000C94A3000C94E7000C94A3000C94A30070
:100040000C94A3000C94A3000C9469040C94A300DA
:100050000C949A020C94CC020C94A3000C94A30070
:100060000C94A3000C94A3000C94A3000C94A30084
:100070000C9429030C945B030C94A3000000000073
:10008000040307060000000000000000000000015B
:10009000020000000000000000000000010204084F
:1000A0001020408001020408102040800102040852
:1000B0001020408001020408102040800404040441
:1000C0000404040403030303030303030202020200
:1000D00002020202010101010101010100002200EE
:1000E000250028002B0000002100240027002A0002
:1000F000CB00FC028B0311241FBECFEFD0E1DEBF8B
:10010000CDBF11E0A0E0B1E0EAEDFBE002C0059058
:100110000D92A631B107D9F722E0A6E1B1E001C006
:100120001D92A238B207E1F710E0CBE7D0E004C09F
:100130002197FE010E94E505C837D107C9F70E9443
:10014000B9030C94EB050C940000CF93DF93C82FF8
:10015000D62F61E00E9478056D2F8C2FDF91CF9113
:100160000C94B405089560E070E080E190E00E9496
:10017000A50064EF71E080E090E00E94D80461E0A7
:1001800070E080E190E00E94A50064EF71E080E003
:1001900090E00C94D8044AE06BE082E291E00E9487
:1001A000E1008FE191E00E94A7018CE191E00E94C3
:1001B000A70189E191E00E94A70186E191E00C94FA
:1001C000A701FC01628343831482158208951F9264
:1001D0000F920FB60F9211242F933F934F935F937B
:1001E0006F937F938F939F93AF93BF93EF93FF93FF
:1001F0008091320187FF05C0109285001092840023
:100200001BC020913201022E000C330B8091310172
:1002100090E02817390784F480913201082E000CF1
:10022000990BFC01EE0FFF1F8E0F9F1FFC01ED5C71
:10023000FE4F808186FD15C0809132018F5F8093D3
:10024000320120913201022E000C330B80913101DA
:1002500090E028173907C4F48091320184305CF1B2
:1002600013C080913201082E000C990BFC01EE0F97
:10027000FF1F8E0F9F1FFC01ED5CFE4F808160E031
:100280008F730E94B405D8CF80918400909185002F
:100290008433954718F480E395E705C08091840086
:1002A00090918500049690938900809388008FEF49
:1002B000809332013BC02091840030918500809171
:1002C0003201082E000C990BFC01EE0FFF1F8E0F60
:1002D0009F1FFC01ED5CFE4F81819281820F931F75
:1002E000909389008093880080913201082E000C41
:1002F000990BFC01EE0FFF1F8E0F9F1FFC01ED5CA1
:10030000FE4F808186FF12C080913201082E000CC2
:10031000990BFC01EE0FFF1F8E0F9F1FFC01ED5C80
:10032000FE4F808161E08F730E94B405FF91EF91D1
:10033000BF91AF919F918F917F916F915F914F91FD
:100340003F912F910F900FBE0F901F901895FC01B9
:10035000909131019430A0F481E0890F80933101B4
:100360009083892F90E0FC01EE0FFF1F8E0F9F1FDF
:10037000FC01ED5CFE4F88EB9BE092838183089546
:100380008FEF80830895FC01918D228D892F90E05D
:10039000805C9F4F821B91098F7399270895FC0100
:1003A000918D828D981731F0828DE80FF11D858D2A
:1003B00090E008958FEF9FEF0895FC01918D828D5D
:1003C000981761F0828DDF01A80FB11D5D968C91A9
:1003D000928D9F5F9F73928F90E008958FEF9FEFB4
:1003E000089582EF92E0892B41F080E090E0892B24
:1003F00021F00E94F20281110DC081E893E0892B67
:1004000071F080E090E0892B51F00E94810381110E
:1004100004C008950E940000F0CF0C9400000895DD
:10042000FC01848DDF01A80FB11DA35ABF4F2C9191
:10043000848D90E001968F739927848FA689B78960
:100440002C93A089B1898C9180648C93938D848D39
:10045000981306C00288F389E02D80818F7D808308
:100460000895CF93DF93EC01888D8823C9F0EA8942
:10047000FB89808185FD05C0A889B9898C9186FD9D
:100480000FC00FB607FCF5CF808185FFF2CFA8899A
:10049000B9898C9185FFEDCFCE010E941002E7CF84
:1004A000DF91CF910895EF92FF920F931F93CF9317
:1004B000DF93EC0181E0888F9B8D8C8D981305C0B4
:1004C000E889F989808185FD24C0F62E0B8D10E026
:1004D0000F5F1F4F0F731127E02E8C8DE8120CC099
:1004E0000FB607FCFACFE889F989808185FFF5CF3F
:1004F000CE010E941002F1CF8B8DFE01E80FF11D9D
:10050000E35AFF4FF0820B8FEA89FB89808180627A
:1005100007C0EE89FF896083E889F989808180645A
:10052000808381E090E0DF91CF911F910F91FF9048
:10053000EF9008951F920F920FB60F9211242F93F0
:100540008F939F93EF93FF93E0914F01F0915001B0
:100550008081E0915501F091560182FD12C0908199
:10056000809158018F5F8F7320915901821751F04C
:10057000E0915801F0E0E15CFE4F958F80935801C7
:1005800001C08081FF91EF919F918F912F910F90EA
:100590000FBE0F901F9018951F920F920FB60F92DB
:1005A00011242F933F934F935F936F937F938F9378
:1005B0009F93AF93BF93EF93FF938FE391E00E94DC
:1005C0001002FF91EF91BF91AF919F918F917F9119
:1005D0006F915F914F913F912F910F900FBE0F90B0
:1005E0001F9018958FE391E00E94C30121E0892BB1
:1005F00009F420E0822F0895EFE3F1E013821282E4
:1006000088EE93E0A0E0B0E084839583A683B7836F
:100610008AE091E09183808385EC90E095878487E0
:1006200084EC90E09787868780EC90E0918B808BBC
:1006300081EC90E0938B828B82EC90E0958B848BA5
:1006400086EC90E0978B868B118E128E138E148E13
:1006500008951F920F920FB60F9211242F938F932C
:100660009F93EF93FF93E091EC01F091ED01808176
:10067000E091F201F091F30182FD12C0908180912E
:10068000F5018F5F8F732091F601821751F0E09191
:10069000F501F0E0E452FE4F958F8093F50101C023
:1006A0008081FF91EF919F918F912F910F900FBEBD
:1006B0000F901F9018951F920F920FB60F92112452
:1006C0002F933F934F935F936F937F938F939F935A
:1006D000AF93BF93EF93FF938CED91E00E941002D4
:1006E000FF91EF91BF91AF919F918F917F916F910A
:1006F0005F914F913F912F910F900FBE0F901F90E0
:1007000018958CED91E00E94C30121E0892B09F43A
:1007100020E0822F0895ECEDF1E01382128288EE42
:1007200093E0A0E0B0E084839583A683B7838AE05A
:1007300091E0918380838DEC90E0958784878CECA9
:1007400090E09787868788EC90E0918B808B89EC8E
:1007500090E0938B828B8AEC90E0958B848B8EEC6F
:1007600090E0978B868B118E128E138E148E0895C7
:1007700008950E9414050E94B8030E94B200C1EFC0
:10078000D1E00E94B3002097E1F30E94F101F9CF7C
:10079000CF92DF92EF92FF920F931F93CF93DF934D
:1007A0006C017A018B01C0E0D0E0CE15DF0589F045
:1007B000D8016D918D01D601ED91FC910190F081F0
:1007C000E02DC6010995892B11F47E0102C0219606
:1007D000ECCFC701DF91CF911F910F91FF90EF9068
:1007E000DF90CF90089508951F920F920FB60F9249
:1007F00011242F933F934F935F936F937F938F9326
:100800009F93AF93BF93EF93FF93E0910001F0911B
:1008100001010995FF91EF91BF91AF919F918F9148
:100820007F916F915F914F913F912F910F900FBEEC
:100830000F901F9018951F920F920FB60F921124D0
:100840002F933F934F935F936F937F938F939F93D8
:10085000AF93BF93EF93FF93E0910201F0910301F7
:100860000995FF91EF91BF91AF919F918F917F91EA
:100870006F915F914F913F912F910F900FBE0F900D
:100880001F9018951F920F920FB60F9211242F935D
:100890003F934F935F936F937F938F939F93AF9308
:1008A000BF93EF93FF93E0910401F0910501099547
:1008B000FF91EF91BF91AF919F918F917F916F9138
:1008C0005F914F913F912F910F900FBE0F901F900E
:1008D00018951F920F920FB60F9211242F933F93EA
:1008E0008F939F93AF93BF9380917A0290917B02F5
:1008F000A0917C02B0917D023091790223E0230F18
:100900002D3720F40196A11DB11D05C026E8230F47
:100910000296A11DB11D2093790280937A029093D3
:100920007B02A0937C02B0937D0280917E02909125
:100930007F02A0918002B09181020196A11DB11D9C
:1009400080937E0290937F02A0938002B0938102F5
:10095000BF91AF919F918F913F912F910F900FBEBB
:100960000F901F9018953FB7F89480917E02909158
:100970007F02A0918002B091810226B5A89B05C09C
:100980002F3F19F00196A11DB11D3FBFBA2FA92F0E
:10099000982F8827820F911DA11DB11DBC01CD018B
:1009A00042E0660F771F881F991F4A95D1F7089577
:1009B0008F929F92AF92BF92CF92DF92EF92FF926F
:1009C0006B017C010E94B3044B015C01C114D10492
:1009D000E104F10401F10E94E4050E94B304DC018A
:1009E000CB0188199909AA09BB09883E9340A10542
:1009F000B10560F321E0C21AD108E108F10888EEE0
:100A0000880E83E0981EA11CB11CC114D104E1041E
:100A1000F10419F7DBCFFF90EF90DF90CF90BF90FC
:100A2000AF909F908F900895789484B5826084BD34
:100A300084B5816084BD85B5826085BD85B58160E2
:100A400085BDEEE6F0E0808181608083E1E8F0E042
:100A50001082808182608083808181608083E0E871
:100A6000F0E0808181608083E1EBF0E08081846050
:100A70008083E0EBF0E0808181608083EAE7F0E052
:100A800080818460808380818260808380818160B6
:100A900080838081806880831092C10008958330B4
:100AA00081F028F4813099F08230A1F008958630E9
:100AB000A9F08730B9F08430D1F4809180008F7D27
:100AC00003C0809180008F7780938000089584B563
:100AD0008F7702C084B58F7D84BD08958091B0006A
:100AE0008F7703C08091B0008F7D8093B000089510
:100AF000CF93DF9390E0FC01E456FF4F2491FC017B
:100B0000E454FF4F8491882361F190E0880F991F8E
:100B1000FC01EA51FF4FC591D491FC01E452FF4F13
:100B2000A591B491611109C09FB7F894888120956F
:100B300082238883EC912E230BC0623061F49FB72F
:100B4000F8943881822F809583238883EC912E2B13
:100B50002C939FBF06C08FB7F894E8812E2B288373
:100B60008FBFDF91CF9108951F93CF93DF93282FED
:100B700030E0F901E458FF4F8491F901E456FF4F4A
:100B8000D491F901E454FF4FC491CC23C9F0162F3E
:100B900081110E944F05EC2FF0E0EE0FFF1FE45291
:100BA000FF4FA591B4918FB7F894111105C09C9196
:100BB000ED2FE095E92302C0EC91ED2BEC938FBF74
:100BC000DF91CF911F9108950895EE0FFF1F0590BB
:0A0BD000F491E02D0994F894FFCF92
:100BDA00F303F303F303000000005302C803C30145
:060BEA00DD01CF01310224
:00000001FF
